S0120000736575736D61727465722E73726563C7
S1130000C861FF1FB5D50000F996000029D600008D
S11300102DD6000031D6000035D6000000000000C7
S113002000000000000000000000000039D60000BD
S11300303DD600000000000041D6000045D6000077
S11300401DC1000027C1000031C100003BC10000F8
S113005045C100004FC1000059C1000063C1000048
S11300606DC1000077C1000081C100008BC1000098
S113007095C100009FC10000A9C10000B3C10000E8
S113008049D600004DD6000051D6000055D60000D8
S113009059D600005DD600003DD4000061D60000B2
S11300A065D6000069D6000095D200009FD20000FA
S11300B0A9D20000D5D300006DD6000071D600008F
S11300C075D6000079D600007DD6000081D60000E8
S11300D085D60000DFD3000089D600008DD600004D
S11300E091D6000095D6000099D600009DD6000058
S11300F0A1D6000051BE0000A5D600005BBE0000E2
S1130100A9D6000065BE0000ADD600006FBE000099
S1130110B1D6000079BE0000B5D6000083BE000051
S1130120B9D600004DB800005FB80000BDD600008D
S1130130C1D60000C5D60000BD900000C7900000E5
S1130140D1900000C9D6000009D20000CDD600002D
S1130150E9A30000F3A30000FDA3000007A400002E
S113016015D40000D1D60000D5D60000D9D60000A1
S1130170FDD200001BD30000DDD60000E1D6000054
S1130180E5D60000F5D10000FFD1000085D30000C2
S1130190E9D60000F7B20000EDD600005D9600003D
S11301A067960000719600007B960000859600001B
S11301B0F1D60000F5D60000F9D60000FDD6000007
S11301C001D7000005D7000009D700000DD70000B3
S11301D011D7000015D7000019D700001DD7000063
S11301E021D7000021D7000021D7000021D700002B
S11301F021D7000021D7000021D7000021D700001B
S113020021D7000021D7000021D7000021D700000A
S113021021D7000021D7000021D7000021D70000FA
S1130400FFFFFFFFFFFFFFFFFFFFFFFFFEFFFFFFF9
S113041000000000000000000000000000000000D8
S113042000000000000000000000000000000000C8
S113043000000000000000000000000000000000B8
S113044000000000000000000000000000000000A8
S113064000000000000000000000000001000000A5
S11306500100000000000000000000000000000095
S11306600000000000000000000000000000000086
S11306700000000000000000000000000000000076
S11306800000000000000000000000000000000066
S11306900000000000000000000000000000000056
S11306A00000000000000000000000000000000046
S11306B00000000000000000000000000000000036
S11306C00000000000000000000000000000000026
S11306D00000000000000000000000000000000016
S11306E00000000000000000000000000000000006
S11306F000000000000000000000000000000000F6
S113070000000000000000000000000000000000E5
S113071000000000000000000000000000000000D5
S113072000000000000000000000000000000000C5
S113073000000000000000000000000000000000B5
S113074000000000000000000000000000000000A5
S11307500000000000000000000000000000000095
S11307600000000000000000000000000000000085
S11307700000000000000000000000000000000075
S11307800000000000000000000000000000000065
S11307900000000000000000000000000000000055
S11307A00000000000000000000000000000000045
S11307B00000000000000000000000000000000035
S11307C00000000000000000000000000000000025
S11307D00000000000000000000000000000000015
S11307E00000000000000000000000000000000005
S11307F000000000000000000000000000000000F5
S113080000000000000000000000000000000000E4
S113081000000000000000000000000000000000D4
S113082000000000000000000000000000000000C4
S113083000000000000000000000000000000000B4
S113084000000000000000000000000001000000A3
S11308500100000001000000010000000000000091
S11308600000000000000000000000000000000084
S11308700000000000000000000000000000000074
S11308800000000000000000000000000000000064
S11308900000000000000000000000000000000054
S11308A00000000000000000000000000000000044
S11308B00000000000000000000000000000000034
S11308C00100000001000000010000000100000020
S11308D00100000001000000010000000000000011
S11308E00000000000000000000000000000000004
S11308F000000000000000000000000000000000F4
S113090000000000000000000000000001000000E2
S113091001000000000000000100000001000000D0
S113092000000000000000000100000000000000C2
S113093000000000000000000000000000000000B3
S113094000000000000000000000000000000000A3
S11309500000000000000000000000000000000093
S11309600000000000000000000000000000000083
S11309700000000000000000000000000000000073
S11309800000000000000000000000000000000063
S11309900000000000000000000000000000000053
S11309A00000000000000000000000000000000043
S11309B00000000001000000010000000100000030
S11309C00100000001000000000000000000000021
S11309D00000000000000000000000000000000013
S11309E00000000000000000000000000000000003
S11309F000000000000000000000000000000000F3
S1130A0000000000000000000000000000000000E2
S1130A1000000000000000000000000000000000D2
S1130A2000000000000000000000000000000000C2
S1130A3000000000000000000000000000000000B2
S1130A4000000000000000000000000000000000A2
S1130A50000000000100000001000000010000008F
S1130A600100000000000000000000000000000081
S1130A700000000000000000000000000000000072
S1130A800000000000000000000000000000000062
S1130A900000000000000000000000000000000052
S1130AA00000000000000000000000000000000042
S1130AB00000000000000000000000000100000031
S1130AC0010000000100000001000000010000001E
S1130AD0010000000100000001000000010000000E
S1130AE00000000000000000000000000000000002
S1130AF000000000000000000000000001000000F1
S1130B0001000000010000000100000001000000DD
S1130B1001000000010000000100000001000000CD
S1130B2001000000010000000100000001000000BD
S1130B3001000000000000000000000000000000B0
S1130B4000000000000000000000000000000000A1
S1130B500000000000000000000000000000000091
S1130B600000000000000000000000000000000081
S1130B700000000000000000000000000000000071
S1130B800000000000000000000000000000000061
S1130B900000000000000000000000000000000051
S1130BA0000000000100000001000000010000003E
S1130BB0010000000100000001000000010000002D
S1130BC00000000000000000000000000100000020
S1130BD0010000000100000001000000000000000E
S1130BE001000000010000000100000001000000FD
S1130BF001000000000000000000000000000000F0
S1130C0000000000000000000000000000000000E0
S1130C1000000000000000000000000000000000D0
S1130C2000000000000000000000000000000000C0
S1130C3000000000000000000000000000000000B0
S1130C4000000000000000000000000000000000A0
S1130C50000000000000000000000000010000008F
S1130C60010000000000000000000000000000007F
S1130C700000000000000000000000000000000070
S1130C800000000000000000000000000000000060
S1130C900000000000000000000000000000000050
S1130CA00000000000000000000000000000000040
S1130CB0000000000000000001000000010000002E
S1130CC0010000000100000001000000010000001C
S1130CD0010000000100000001000000010000000C
S1130CE001000000000000000100000001000000FD
S1130CF001000000010000000100000001000000EC
S1130D0000000000000000000000000000000000DF
S1130D1000000000000000000000000000000000CF
S1130D2000000000000000000000000000000000BF
S1130D3001000000010000000100000000000000AC
S1130D40000000000000000000000000000000009F
S1130D50010000000100000001000000010000008B
S1130D60010000000100000001000000000000007C
S1130D70000000000000000000000000000000006F
S1130D80000000000000000000000000000000005F
S1130D90000000000000000000000000000000004F
S1130DA0000000000000000000000000000000003F
S1130DB0000000000100000001000000000000002D
S1130DC0000000000000000000000000000000001F
S1130DD0000000000000000001000000000000000E
S1130DE000000000000000000000000001000000FE
S1130DF000000000000000000000000000000000EF
S1130E0000000000000000000000000000000000DE
S1130E1000000000000000000000000000000000CE
S1130E2000000000000000000000000000000000BE
S1130E3000000000000000000000000000000000AE
S1130E40000000000000000000000000000000009E
S1130E50000000000000000000000000000000008E
S1130E60000000000000000000000000000000007E
S1130E70000000000000000000000000000000006E
S1130E80000000000000000000000000000000005E
S1130E90000000000000000000000000000000004E
S1130EA0000000000000000000000000000000003E
S1130EB0000000000100000001000000010000002B
S1130EC0010000000100000001000000010000001A
S1130ED0010000000100000001000000010000000A
S1130EE001000000010000000100000001000000FA
S1130EF000000000000000000000000000000000EE
S1130F0000000000000000000000000000000000DD
S1130F1000000000000000000000000000000000CD
S1130F2000000000000000000000000000000000BD
S1130F3000000000000000000100000001000000AB
S1130F40010000000100000000000000010000009A
S1130F500100000001000000010000000100000089
S1130F600100000001000000010000000100000079
S1130F70010000000000000000000000000000006C
S1130F80000000000000000000000000000000005D
S1130F90000000000000000000000000000000004D
S1130FA0000000000000000001000000010000003B
S1130FB0000000000100000001000000000000002B
S1130FC0010000000100000000000000000000001B
S1130FD0000000000000000001000000000000000C
S1130FE000000000000000000000000001000000FC
S1130FF000000000000000000000000000000000ED
S113100000000000000000000000000000000000DC
S113101000000000000000000000000000000000CC
S113102000000000000000000000000000000000BC
S113103000000000000000000000000001000000AB
S11310400100000001000000010000000100000098
S11310500100000001000000010000000000000089
S1131060000000000000000000000000000000007C
S1131070000000000000000000000000000000006C
S1131080000000000000000000000000000000005C
S1131090000000000000000000000000000000004C
S11310A0000000000000000000000000000000003C
S11310B00000000001000000010000000100000029
S11310C00100000001000000010000000100000018
S11310D00100000001000000010000000100000008
S11310E001000000000000000000000000000000FB
S11310F000000000000000000000000000000000EC
S113110000000000000000000000000000000000DB
S113111000000000000000000000000000000000CB
S113112000000000000000000000000000000000BB
S113113000000000000000000000000000000000AB
S11311400100000001000000010000000100000097
S11311500100000001000000010000000100000087
S11311600100000001000000010000000100000077
S1131170010000000000000000000000000000006A
S1131180000000000000000000000000000000005B
S1131190000000000000000000000000000000004B
S11311A00000000000000000010000000100000039
S11311B00000000001000000010000000000000029
S11311C0010000000000000000000000000000001A
S11311D0000000000000000001000000000000000A
S11311E001000000000000000000000001000000F9
S11311F000000000000000000000000000000000EB
S113120000000000000000000000000000000000DA
S113121000000000000000000000000000000000CA
S113122000000000000000000000000000000000BA
S113123000000000000000000000000000000000AA
S1131240000000000000000000000000000000009A
S11312500000000001000000010000000000000088
S1131260000000000000000000000000000000007A
S1131270000000000000000000000000000000006A
S1131280000000000000000000000000000000005A
S1131290000000000000000000000000000000004A
S11312A0000000000000000000000000000000003A
S11312B00000000001000000010000000100000027
S11312C00100000001000000010000000100000016
S11312D00100000001000000010000000100000006
S11312E000000000000000000000000000000000FA
S11312F000000000000000000000000000000000EA
S113130000000000000000000000000000000000D9
S113131000000000000000000000000000000000C9
S113132000000000000000000000000000000000B9
S113133000000000000000000000000000000000A9
S11313400000000000000000010000000100000097
S11313500100000001000000010000000100000085
S11313600100000001000000010000000100000075
S11313700100000001000000000000000000000067
S11313800000000000000000000000000000000059
S11313900000000000000000000000000000000049
S11313A00000000001000000010000000100000036
S11313B00000000001000000010000000000000027
S11313C00100000001000000000000000100000016
S11313D00000000000000000010000000000000008
S11313E001000000010000000000000001000000F6
S11313F000000000000000000000000000000000E9
S113140000000000000000000000000000000000D8
S113141000000000000000000000000000000000C8
S113142000000000000000000000000000000000B8
S113143000000000000000000000000000000000A8
S11314400000000000000000000000000000000098
S11314500000000001000000010000000000000086
S11314600000000000000000000000000000000078
S11314700000000001000000000000000000000067
S11314800000000000000000000000000000000058
S11314900000000000000000000000000000000048
S11314A00000000000000000000000000000000038
S11314B00000000001000000010000000100000025
S11314C00100000001000000010000000100000014
S11314D00100000001000000010000000100000004
S11314E000000000000000000000000000000000F8
S11314F000000000000000000000000000000000E8
S113150000000000000000000000000000000000D7
S113151000000000000000000000000000000000C7
S113152000000000000000000000000000000000B7
S113153000000000000000000000000000000000A7
S11315400000000000000000000000000000000097
S11315500100000001000000010000000100000083
S11315600100000001000000010000000100000073
S11315700100000001000000000000000000000065
S11315800000000000000000000000000000000057
S11315900000000000000000000000000000000047
S11315A00000000001000000010000000100000034
S11315B00100000001000000010000000100000023
S11315C00100000001000000000000000100000014
S11315D00100000000000000010000000000000005
S11315E001000000010000000000000001000000F4
S11315F000000000000000000000000000000000E7
S113160000000000000000000000000000000000D6
S113161000000000000000000000000000000000C6
S113162000000000000000000000000000000000B6
S113163000000000000000000000000000000000A6
S11316400000000000000000000000000000000096
S11316500000000001000000010000000000000084
S11316600000000000000000000000000000000076
S11316700100000001000000010000000000000063
S11316800000000000000000000000000000000056
S11316900000000000000000000000000000000046
S11316A00000000000000000000000000000000036
S11316B00000000001000000010000000100000023
S11316C00100000001000000010000000100000012
S11316D00100000001000000010000000000000003
S11316E000000000000000000000000000000000F6
S11316F000000000000000000000000000000000E6
S113170000000000000000000000000000000000D5
S113171000000000000000000000000000000000C5
S113172001000000000000000000000000000000B4
S113173000000000000000000000000000000000A5
S11317400000000000000000000000000000000095
S11317500000000001000000010000000100000082
S11317600100000001000000010000000100000071
S11317700100000001000000010000000000000062
S11317800000000000000000000000000000000055
S11317900000000000000000000000000000000045
S11317A00000000000000000000000000000000035
S11317B00100000001000000010000000000000022
S11317C00000000000000000000000000100000014
S11317D00100000000000000010000000000000003
S11317E000000000010000000000000001000000F3
S11317F000000000000000000000000000000000E5
S113180000000000000000000000000000000000D4
S113181000000000000000000000000000000000C4
S113182000000000000000000000000000000000B4
S113183000000000000000000000000000000000A4
S11318400000000000000000000000000000000094
S11318500000000001000000010000000100000081
S11318600000000000000000000000000100000073
S11318700100000001000000000000000000000062
S11318800000000000000000000000000000000054
S11318900000000000000000000000000000000044
S11318A00000000000000000000000000000000034
S11318B00000000001000000010000000100000021
S11318C00100000001000000010000000100000010
S11318D00100000001000000000000000000000002
S11318E000000000000000000000000000000000F4
S11318F000000000000000000000000000000000E4
S113190000000000010000000000000000000000D2
S113191000000000000000000000000001000000C2
S113192001000000010000000100000001000000AF
S113193000000000000000000000000000000000A3
S11319400000000000000000000000000000000093
S11319500000000001000000010000000100000080
S1131960010000000100000001000000010000006F
S11319700100000001000000010000000000000060
S11319800000000000000000000000000000000053
S11319900000000000000000000000000000000043
S11319A00000000000000000000000000100000032
S11319B0010000000100000001000000010000001F
S11319C00100000000000000000000000000000012
S11319D00100000000000000010000000000000001
S11319E000000000010000000000000001000000F1
S11319F000000000000000000000000000000000E3
S1131A0000000000000000000000000000000000D2
S1131A1000000000000000000000000000000000C2
S1131A2000000000000000000000000000000000B2
S1131A30010000000100000001000000010000009E
S1131A40010000000100000001000000010000008E
S1131A50000000000100000001000000010000007F
S1131A600000000000000000010000000100000070
S1131A700000000000000000000000000000000062
S1131A800000000000000000000000000000000052
S1131A900000000000000000000000000000000042
S1131AA00000000000000000000000000000000032
S1131AB0000000000100000001000000010000001F
S1131AC0010000000100000001000000010000000E
S1131AD00100000000000000000000000000000001
S1131AE000000000000000000000000000000000F2
S1131AF000000000000000000100000001000000E0
S1131B0001000000010000000100000000000000CE
S1131B1000000000000000000000000000000000C1
S1131B2001000000010000000100000001000000AD
S1131B3000000000000000000000000000000000A1
S1131B400000000000000000000000000000000091
S1131B50000000000000000001000000010000007F
S1131B60010000000100000001000000010000006D
S1131B70010000000100000001000000000000005E
S1131B800000000000000000000000000000000051
S1131B900000000000000000000000000000000041
S1131BA0000000000000000001000000010000002F
S1131BB0000000000100000001000000000000001F
S1131BC0010000000100000001000000000000000E
S1131BD00000000000000000010000000000000000
S1131BE000000000000000000000000001000000F0
S1131BF000000000000000000000000000000000E1
S1131C0000000000000000000000000000000000D0
S1131C1000000000000000000000000000000000C0
S1131C2000000000000000000000000000000000B0
S1131C3000000000000000000000000000000000A0
S1131C40000000000000000001000000010000008E
S1131C50000000000100000001000000010000007D
S1131C60010000000100000001000000000000006D
S1131C700000000000000000000000000000000060
S1131C800000000000000000000000000000000050
S1131C900000000000000000000000000000000040
S1131CA00000000000000000000000000000000030
S1131CB0000000000100000001000000010000001D
S1131CC0010000000100000001000000010000000C
S1131CD001000000000000000000000000000000FF
S1131CE000000000000000000000000000000000F0
S1131CF001000000010000000100000001000000DC
S1131D0001000000010000000100000001000000CB
S1131D1000000000000000000000000000000000BF
S1131D2001000000000000000000000000000000AE
S1131D30000000000000000000000000000000009F
S1131D40000000000000000000000000000000008F
S1131D50000000000000000001000000010000007D
S1131D60010000000100000001000000010000006B
S1131D70010000000100000001000000000000005C
S1131D80000000000000000000000000000000004F
S1131D90000000000000000000000000000000003F
S1131DA0000000000100000001000000000000002D
S1131DB0000000000000000000000000000000001F
S1131DC0000000000100000000000000000000000E
S1131DD000000000000000000100000000000000FE
S1131DE000000000000000000000000001000000EE
S1131DF000000000000000000000000000000000DF
S1131E0000000000000000000000000000000000CE
S1131E1000000000000000000000000000000000BE
S1131E2000000000000000000000000000000000AE
S1131E30000000000000000000000000000000009E
S1131E40000000000100000001000000000000008C
S1131E50000000000100000001000000000000007C
S1131E60010000000100000000000000000000006C
S1131E70000000000000000000000000000000005E
S1131E80000000000000000000000000000000004E
S1131E90000000000000000000000000000000003E
S1131EA0000000000000000000000000000000002E
S1131EB0000000000100000001000000010000001B
S1131EC0010000000100000001000000010000000A
S1131ED000000000000000000000000000000000FE
S1131EE000000000000000000000000000000000EE
S1131EF000000000000000000000000000000000DE
S1131F0000000000010000000100000001000000CA
S1131F1001000000010000000000000001000000BA
S1131F2000000000000000000000000000000000AD
S1131F30000000000000000000000000000000009D
S1131F40000000000000000000000000000000008D
S1131F50000000000000000000000000010000007C
S1131F600100000001000000010000000100000069
S1131F70010000000100000001000000000000005A
S1131F80000000000000000000000000000000004D
S1131F90000000000000000000000000000000003D
S1131FA00100000001000000010000000100000029
S1131FB00100000001000000010000000100000019
S1131FC0010000000100000000000000000000000B
S1131FD000000000000000000100000000000000FC
S1131FE000000000000000000100000001000000EB
S1131FF000000000000000000000000000000000DD
S113200000000000000000000000000000000000CC
S113201000000000000000000000000000000000BC
S113202000000000000000000000000000000000AC
S1132030000000000000000000000000000000009C
S1132040000000000100000001000000000000008A
S1132050000000000100000001000000000000007A
S1132060010000000100000000000000000000006A
S1132070000000000000000000000000000000005C
S1132080000000000000000000000000000000004C
S1132090000000000000000000000000000000003C
S11320A0000000000000000000000000000000002C
S11320B0000000000000000001000000010000001A
S11320C00100000001000000010000000000000009
S11320D000000000000000000000000000000000FC
S11320E000000000000000000000000000000000EC
S11320F000000000000000000000000000000000DC
S113210000000000000000000000000001000000CA
S113211001000000000000000000000001000000B9
S113212001000000000000000000000000000000AA
S1132130000000000000000000000000000000009B
S1132140000000000000000000000000000000008B
S1132150000000000000000000000000010000007A
S11321600100000001000000010000000100000067
S11321700100000001000000000000000000000059
S1132180000000000000000000000000000000004B
S1132190000000000000000000000000000000003B
S11321A0000000000000000001000000000000002A
S11321B00000000001000000010000000000000019
S11321C00100000001000000000000000000000009
S11321D000000000010000000100000001000000F8
S11321E001000000010000000100000001000000E7
S11321F000000000000000000000000000000000DB
S113220000000000000000000000000000000000CA
S113221000000000000000000000000000000000BA
S113222000000000000000000000000000000000AA
S1132230000000000000000000000000000000009A
S11322400100000001000000010000000000000087
S11322500000000001000000010000000000000078
S11322600000000001000000010000000000000068
S1132270000000000000000000000000000000005A
S1132280000000000000000000000000000000004A
S1132290000000000000000000000000000000003A
S11322A0000000000000000000000000000000002A
S11322B00000000000000000000000000100000019
S11322C00100000001000000010000000000000007
S11322D000000000000000000000000000000000FA
S11322E000000000000000000000000000000000EA
S11322F000000000000000000000000001000000D9
S113230001000000010000000000000000000000C7
S113231000000000000000000000000000000000B9
S113232000000000010000000100000001000000A6
S11323300000000000000000000000000000000099
S11323400000000000000000000000000000000089
S11323500000000000000000000000000000000079
S11323600100000001000000010000000100000065
S11323700100000001000000000000000000000057
S11323800000000000000000000000000000000049
S11323900000000000000000000000000000000039
S11323A00000000000000000010000000000000028
S11323B00000000001000000010000000000000017
S11323C00100000001000000000000000100000006
S11323D001000000010000000100000001000000F5
S11323E001000000010000000000000001000000E6
S11323F000000000000000000000000000000000D9
S113240000000000000000000000000000000000C8
S113241000000000000000000000000000000000B8
S113242000000000000000000000000000000000A8
S11324300000000000000000000000000000000098
S11324400100000001000000000000000000000086
S11324500000000001000000010000000000000076
S11324600000000000000000010000000100000066
S11324700000000000000000000000000000000058
S11324800000000000000000000000000000000048
S11324900000000000000000000000000000000038
S11324A00000000000000000000000000000000028
S11324B00000000000000000000000000000000018
S11324C00100000001000000010000000000000005
S11324D000000000000000000000000000000000F8
S11324E000000000000000000000000000000000E8
S11324F000000000010000000100000001000000D5
S113250001000000010000000000000000000000C5
S113251000000000000000000000000000000000B7
S113252000000000000000000100000001000000A5
S11325300000000000000000000000000000000097
S11325400000000000000000000000000000000087
S11325500000000000000000000000000000000077
S11325600100000001000000010000000100000063
S11325700100000000000000000000000000000056
S11325800000000000000000000000000000000047
S11325900000000000000000000000000000000037
S11325A00000000000000000010000000100000025
S11325B00100000001000000010000000100000013
S11325C00100000001000000000000000100000004
S11325D001000000000000000100000000000000F5
S11325E000000000000000000000000001000000E6
S11325F000000000000000000000000000000000D7
S113260000000000000000000000000000000000C6
S113261000000000000000000000000000000000B6
S113262000000000000000000000000000000000A6
S11326300000000000000000000000000100000095
S11326400100000000000000000000000000000085
S11326500000000001000000010000000000000074
S11326600000000000000000000000000100000065
S11326700100000001000000000000000000000054
S11326800000000000000000000000000000000046
S11326900000000000000000000000000000000036
S11326A00000000000000000000000000000000026
S11326B00000000000000000000000000000000016
S11326C00000000001000000000000000000000005
S11326D000000000000000000000000000000000F6
S11326E000000000000000000000000000000000E6
S11326F000000000000000000000000001000000D5
S113270000000000000000000000000000000000C5
S113271000000000000000000000000000000000B5
S113272000000000000000000000000001000000A4
S11327300000000000000000000000000000000095
S11327400000000000000000000000000000000085
S11327500000000000000000000000000000000075
S11327600100000001000000010000000100000061
S11327700000000000000000000000000000000055
S11327800000000000000000000000000000000045
S11327900000000000000000000000000000000035
S11327A00000000000000000010000000100000023
S11327B00000000001000000010000000000000013
S11327C00100000001000000000000000000000003
S11327D000000000000000000100000000000000F4
S11327E000000000000000000000000001000000E4
S11327F000000000000000000000000000000000D5
S113280000000000000000000000000000000000C4
S113281000000000000000000000000000000000B4
S113282000000000000000000000000000000000A4
S11328300000000000000000010000000100000092
S11328400100000000000000000000000000000083
S11328500000000001000000010000000000000072
S11328600000000000000000000000000000000064
S11328700100000001000000010000000000000051
S11328800000000000000000000000000000000044
S11328900000000000000000000000000000000034
S11328A00000000000000000000000000000000024
S11328B00000000000000000000000000000000014
S11328C00100000001000000010000000000000001
S11328D000000000000000000000000000000000F4
S11328E000000000000000000000000000000000E4
S11328F000000000000000000000000001000000D3
S113290000000000000000000000000000000000C3
S113291000000000000000000000000000000000B3
S113292000000000000000000000000000000000A3
S11329300000000000000000000000000000000093
S11329400000000000000000000000000000000083
S11329500000000000000000000000000000000073
S11329600000000001000000010000000100000060
S11329700000000000000000000000000000000053
S11329800000000000000000000000000000000043
S11329900000000000000000000000000000000033
S11329A00000000000000000010000000000000022
S11329B00000000001000000010000000000000011
S11329C00100000001000000000000000000000001
S11329D000000000000000000100000000000000F2
S11329E000000000000000000000000001000000E2
S11329F000000000000000000000000000000000D3
S1132A0000000000000000000000000000000000C2
S1132A1000000000000000000000000000000000B2
S1132A2000000000000000000000000000000000A2
S1132A30010000000100000001000000000000008F
S1132A400000000000000000000000000000000082
S1132A500000000001000000010000000000000070
S1132A600000000000000000000000000000000062
S1132A70000000000100000001000000010000004F
S1132A800000000000000000000000000000000042
S1132A900000000000000000000000000000000032
S1132AA00000000000000000000000000000000022
S1132AB00000000000000000000000000000000012
S1132AC001000000010000000100000000000000FF
S1132AD000000000000000000000000000000000F2
S1132AE000000000000000000000000000000000E2
S1132AF000000000000000000000000000000000D2
S1132B0000000000000000000000000000000000C1
S1132B1000000000000000000000000000000000B1
S1132B2000000000000000000000000000000000A1
S1132B300000000000000000000000000000000091
S1132B400000000000000000000000000000000081
S1132B500000000000000000000000000000000071
S1132B60000000000100000001000000010000005E
S1132B700000000000000000000000000000000051
S1132B800000000000000000000000000000000041
S1132B900000000000000000000000000000000031
S1132BA0000000000000000001000000010000001F
S1132BB0010000000100000001000000010000000D
S1132BC001000000010000000000000000000000FF
S1132BD000000000000000000100000000000000F0
S1132BE000000000000000000000000001000000E0
S1132BF000000000000000000000000000000000D1
S1132C0000000000000000000000000000000000C0
S1132C1000000000000000000000000000000000B0
S1132C2000000000000000000000000000000000A0
S1132C30010000000100000000000000000000008E
S1132C40000000000000000000000000010000007F
S1132C50010000000100000001000000000000006D
S1132C600000000000000000000000000000000060
S1132C700000000000000000000000000000000050
S1132C800000000000000000000000000000000040
S1132C900000000000000000000000000000000030
S1132CA00000000000000000000000000000000020
S1132CB0000000000000000000000000010000000F
S1132CC001000000010000000100000000000000FD
S1132CD000000000000000000000000000000000F0
S1132CE000000000000000000000000000000000E0
S1132CF000000000000000000000000000000000D0
S1132D0000000000000000000000000000000000BF
S1132D1000000000000000000000000000000000AF
S1132D20000000000000000000000000000000009F
S1132D30000000000000000000000000000000008F
S1132D40000000000000000000000000000000007F
S1132D50000000000000000000000000000000006F
S1132D60000000000100000001000000010000005C
S1132D70000000000000000000000000000000004F
S1132D80000000000000000000000000000000003F
S1132D90000000000000000000000000000000002F
S1132DA0000000000000000001000000010000001D
S1132DB0010000000100000001000000010000000B
S1132DC001000000010000000000000000000000FD
S1132DD001000000010000000100000000000000EC
S1132DE000000000010000000100000001000000DC
S1132DF000000000000000000000000000000000CF
S1132E0000000000000000000000000000000000BE
S1132E1000000000000000000000000000000000AE
S1132E20000000000000000000000000000000009E
S1132E30000000000000000000000000000000008E
S1132E40000000000000000000000000010000007D
S1132E50010000000100000000000000000000006C
S1132E60000000000000000000000000000000005E
S1132E70000000000000000000000000000000004E
S1132E80000000000000000000000000000000003E
S1132E90000000000000000000000000000000002E
S1132EA0000000000000000000000000000000001E
S1132EB0000000000000000000000000010000000D
S1132EC001000000010000000100000000000000FB
S1132ED000000000000000000000000000000000EE
S1132EE000000000000000000000000000000000DE
S1132EF000000000000000000000000000000000CE
S1132F0000000000000000000000000000000000BD
S1132F1000000000000000000000000000000000AD
S1132F20000000000000000001000000000000009C
S1132F30000000000000000000000000000000008D
S1132F40000000000000000000000000000000007D
S1132F50000000000000000000000000000000006D
S1132F60000000000100000001000000010000005A
S1132F70000000000000000000000000000000004D
S1132F80000000000000000000000000000000003D
S1132F90000000000000000000000000000000002D
S1132FA0000000000000000001000000000000001C
S1132FB0000000000000000000000000000000000D
S1132FC001000000010000000000000000000000FB
S1132FD001000000010000000100000000000000EA
S1132FE000000000010000000100000001000000DA
S1132FF000000000000000000000000000000000CD
S113300000000000000000000000000000000000BC
S113301000000000000000000000000000000000AC
S1133020000000000000000000000000000000009C
S1133030000000000000000000000000000000008C
S1133040000000000000000000000000000000007C
S1133050000000000000000000000000000000006C
S1133060000000000000000000000000000000005C
S1133070000000000000000000000000000000004C
S1133080000000000000000000000000000000003C
S1133090000000000000000000000000000000002C
S11330A0000000000000000000000000000000001C
S11330B0000000000000000000000000010000000B
S11330C001000000010000000000000000000000FA
S11330D000000000000000000000000000000000EC
S11330E000000000000000000000000000000000DC
S11330F000000000000000000000000000000000CC
S113310000000000000000000100000001000000B9
S113311000000000000000000000000000000000AB
S1133120000000000000000000000000000000009B
S1133130010000000000000000000000000000008A
S1133140000000000000000000000000000000007B
S1133150000000000000000000000000000000006B
S11331600000000001000000010000000100000058
S1133170010000000000000000000000000000004A
S1133180000000000000000000000000000000003B
S1133190000000000000000000000000000000002B
S11331A0000000000000000000000000000000001B
S11331B0000000000000000000000000000000000B
S11331C000000000000000000000000000000000FB
S11331D000000000000000000000000000000000EB
S11331E000000000000000000000000000000000DB
S11331F000000000000000000000000000000000CB
S113320000000000000000000000000000000000BA
S113321000000000000000000000000000000000AA
S1133220000000000000000000000000000000009A
S11332300100000001000000010000000100000086
S11332400100000001000000010000000100000076
S11332500100000001000000010000000100000066
S11332600100000001000000010000000100000056
S11332700100000001000000010000000000000047
S1133280000000000000000000000000000000003A
S1133290000000000000000000000000000000002A
S11332A0000000000000000000000000000000001A
S11332B00000000000000000000000000100000009
S11332C001000000000000000000000000000000F9
S11332D000000000000000000000000000000000EA
S11332E000000000000000000000000000000000DA
S11332F000000000000000000000000000000000CA
S113330000000000000000000100000001000000B7
S113331001000000010000000100000001000000A5
S11333200100000001000000010000000000000096
S11333300100000000000000000000000000000088
S11333400000000000000000000000000000000079
S11333500000000000000000000000000000000069
S11333600000000001000000010000000100000056
S11333700100000000000000000000000000000048
S11333800000000000000000000000000000000039
S11333900000000000000000000000000000000029
S11333A00000000000000000000000000000000019
S11333B00000000000000000000000000000000009
S11333C000000000000000000000000000000000F9
S11333D000000000000000000000000000000000E9
S11333E000000000000000000000000000000000D9
S11333F000000000000000000000000000000000C9
S113340000000000000000000000000000000000B8
S113341000000000000000000000000000000000A8
S11334200000000000000000000000000000000098
S11334300100000001000000010000000100000084
S11334400100000001000000010000000100000074
S11334500100000001000000010000000100000064
S11334600100000001000000010000000100000054
S11334700100000001000000010000000100000044
S11334800000000000000000000000000000000038
S11334900000000000000000000000000000000028
S11334A00000000000000000000000000000000018
S11334B00000000000000000000000000100000007
S11334C001000000000000000000000000000000F7
S11334D000000000000000000000000000000000E8
S11334E000000000000000000000000000000000D8
S11334F000000000000000000000000000000000C8
S113350000000000000000000000000000000000B7
S113351001000000010000000100000001000000A3
S11335200100000001000000000000000000000095
S11335300100000000000000000000000000000086
S11335400000000000000000000000000000000077
S11335500000000000000000000000000000000067
S11335600000000000000000010000000100000055
S11335700100000000000000000000000000000046
S11335800000000000000000000000000000000037
S11335900000000000000000000000000000000027
S11335A00000000000000000000000000000000017
S11335B00000000000000000000000000000000007
S11335C000000000010000000000000000000000F6
S11335D000000000000000000000000000000000E7
S11335E000000000000000000000000000000000D7
S11335F000000000000000000000000000000000C7
S113360000000000000000000000000000000000B6
S113361000000000000000000000000000000000A6
S11336200000000000000000000000000000000096
S11336300000000000000000000000000000000086
S11336400000000000000000000000000000000076
S11336500000000001000000010000000000000064
S11336600000000000000000000000000000000056
S11336700000000000000000000000000000000046
S11336800000000000000000000000000000000036
S11336900000000000000000000000000000000026
S11336A00000000000000000000000000000000016
S11336B00000000000000000010000000100000004
S11336C000000000000000000000000000000000F6
S11336D000000000000000000000000000000000E6
S11336E000000000000000000000000000000000D6
S11336F000000000000000000000000000000000C6
S113370000000000000000000000000000000000B5
S113371000000000000000000100000001000000A3
S11337200100000000000000000000000000000094
S11337300000000000000000000000000000000085
S11337400000000000000000000000000000000075
S11337500000000000000000000000000000000065
S11337600000000000000000010000000100000053
S11337700100000000000000000000000000000044
S11337800000000000000000000000000000000035
S11337900000000000000000000000000000000025
S11337A00000000000000000000000000000000015
S11337B00000000000000000000000000000000005
S11337C000000000010000000100000000000000F3
S11337D000000000000000000000000000000000E5
S11337E000000000000000000000000000000000D5
S11337F000000000000000000000000000000000C5
S113380000000000000000000000000000000000B4
S113381000000000000000000000000000000000A4
S11338200000000000000000000000000000000094
S11338300000000000000000000000000000000084
S11338400000000000000000000000000000000074
S11338500000000001000000010000000000000062
S11338600000000000000000000000000000000054
S11338700000000000000000000000000000000044
S11338800000000000000000000000000000000034
S11338900000000000000000000000000000000024
S11338A00000000000000000000000000000000014
S11338B00000000001000000010000000100000001
S11338C000000000000000000000000000000000F4
S11338D000000000000000000000000000000000E4
S11338E000000000000000000000000000000000D4
S11338F000000000000000000000000000000000C4
S113390000000000000000000000000000000000B3
S113391000000000000000000000000000000000A3
S11339200000000000000000000000000000000093
S11339300000000000000000000000000000000083
S11339400000000000000000000000000000000073
S11339500000000000000000000000000000000063
S11339600000000000000000010000000100000051
S11339700100000000000000000000000000000042
S11339800000000000000000000000000000000033
S11339900000000000000000000000000000000023
S11339A00000000000000000000000000000000013
S11339B00000000000000000000000000000000003
S11339C001000000010000000000000000000000F1
S11339D000000000000000000000000000000000E3
S11339E000000000000000000000000000000000D3
S11339F000000000000000000000000000000000C3
S1133A0000000000000000000000000000000000B2
S1133A1000000000000000000000000000000000A2
S1133A200000000000000000000000000000000092
S1133A300000000000000000000000000000000082
S1133A400000000000000000000000000000000072
S1133A500100000001000000000000000000000060
S1133A600000000000000000000000000000000052
S1133A700000000000000000000000000000000042
S1133A800000000000000000000000000000000032
S1133A900000000000000000000000000000000022
S1133AA00000000000000000000000000000000012
S1133AB00000000000000000010000000100000000
S1133AC000000000000000000000000000000000F2
S1133AD000000000000000000000000000000000E2
S1133AE000000000000000000000000000000000D2
S1133AF000000000000000000000000000000000C2
S1133B0000000000000000000000000000000000B1
S1133B10000000000100000001000000010000009E
S1133B20010000000100000001000000010000008D
S1133B300000000000000000000000000000000081
S1133B400000000000000000000000000000000071
S1133B500000000000000000000000000000000061
S1133B60000000000000000001000000010000004F
S1133B700100000000000000000000000000000040
S1133B800000000000000000000000000000000031
S1133B900000000000000000000000000000000021
S1133BA00000000000000000010000000000000010
S1133BB00000000000000000000000000100000000
S1133BC001000000010000000000000000000000EF
S1133BD000000000000000000000000000000000E1
S1133BE000000000000000000100000000000000D0
S1133BF000000000000000000000000000000000C1
S1133C0000000000000000000000000000000000B0
S1133C1000000000000000000000000000000000A0
S1133C200000000000000000000000000000000090
S1133C300000000000000000000000000000000080
S1133C40000000000000000000000000010000006F
S1133C50010000000100000000000000000000005E
S1133C600000000000000000000000000000000050
S1133C700000000000000000000000000000000040
S1133C800000000000000000000000000000000030
S1133C900000000000000000000000000000000020
S1133CA00000000000000000000000000000000010
S1133CB000000000010000000100000000000000FE
S1133CC000000000000000000000000000000000F0
S1133CD000000000000000000000000000000000E0
S1133CE000000000000000000000000000000000D0
S1133CF000000000000000000000000000000000C0
S1133D0000000000000000000000000000000000AF
S1133D10010000000100000001000000010000009B
S1133D20000000000000000001000000010000008D
S1133D30000000000000000000000000000000007F
S1133D40000000000000000000000000000000006F
S1133D50000000000000000000000000000000005F
S1133D60000000000000000001000000010000004D
S1133D70000000000000000000000000000000003F
S1133D80000000000000000000000000000000002F
S1133D90000000000000000000000000000000001F
S1133DA0000000000100000001000000010000000C
S1133DB001000000010000000100000001000000FB
S1133DC001000000010000000100000001000000EB
S1133DD001000000010000000100000001000000DB
S1133DE001000000010000000100000000000000CC
S1133DF000000000000000000000000000000000BF
S1133E0000000000000000000000000000000000AE
S1133E10000000000000000000000000000000009E
S1133E20000000000000000000000000000000008E
S1133E30000000000000000000000000000000007E
S1133E40000000000000000000000000010000006D
S1133E50010000000100000000000000000000005C
S1133E60010000000000000000000000000000004D
S1133E70000000000000000000000000000000003E
S1133E80000000000000000000000000000000002E
S1133E90000000000000000000000000000000001E
S1133EA0000000000000000000000000000000000E
S1133EB001000000010000000100000000000000FB
S1133EC000000000000000000000000000000000EE
S1133ED000000000000000000000000000000000DE
S1133EE000000000000000000000000000000000CE
S1133EF000000000000000000000000000000000BE
S1133F0000000000000000000000000000000000AD
S1133F100100000001000000010000000100000099
S1133F20000000000100000001000000010000008A
S1133F30010000000000000000000000000000007C
S1133F40000000000000000000000000000000006D
S1133F50000000000000000000000000000000005D
S1133F60000000000000000001000000010000004B
S1133F70010000000000000000000000000000003C
S1133F80000000000000000000000000000000002D
S1133F90000000000000000000000000000000001D
S1133FA0000000000000000000000000000000000D
S1133FB000000000000000000100000001000000FB
S1133FC000000000000000000000000000000000ED
S1133FD000000000000000000000000000000000DD
S1133FE000000000000000000000000000000000CD
S1133FF000000000000000000000000000000000BD
S113400000000000000000000000000000000000AC
S1134010000000000000000000000000000000009C
S1134020000000000000000000000000000000008C
S1134030000000000000000000000000000000007C
S1134040000000000000000001000000010000006A
S1134050010000000100000000000000000000005A
S1134060010000000100000000000000000000004A
S1134070000000000000000000000000000000003C
S1134080000000000000000000000000000000002C
S1134090000000000000000000000000000000001C
S11340A0000000000000000000000000010000000B
S11340B001000000010000000100000000000000F9
S11340C000000000000000000000000000000000EC
S11340D000000000000000000000000000000000DC
S11340E000000000000000000000000000000000CC
S11340F000000000000000000000000000000000BC
S113410000000000000000000000000000000000AB
S11341100100000001000000010000000100000097
S11341200100000001000000010000000100000087
S1134130000000000000000000000000000000007B
S1134140000000000000000000000000000000006B
S1134150000000000000000000000000000000005B
S11341600000000000000000010000000100000049
S1134170010000000000000000000000000000003A
S1134180000000000000000000000000000000002B
S1134190000000000000000000000000000000001B
S11341A0000000000000000000000000000000000B
S11341B000000000000000000100000001000000F9
S11341C000000000000000000000000001000000EA
S11341D000000000000000000000000000000000DB
S11341E000000000000000000000000000000000CB
S11341F000000000000000000000000000000000BB
S113420000000000000000000000000000000000AA
S1134210000000000000000000000000000000009A
S1134220000000000000000000000000000000008A
S1134230000000000000000000000000000000007A
S11342400000000001000000010000000000000068
S11342500100000001000000000000000000000058
S11342600000000001000000010000000000000048
S1134270000000000000000000000000000000003A
S1134280000000000000000000000000000000002A
S1134290000000000000000000000000000000001A
S11342A00000000000000000000000000100000009
S11342B001000000010000000100000001000000F6
S11342C000000000000000000000000000000000EA
S11342D000000000000000000000000000000000DA
S11342E000000000000000000000000000000000CA
S11342F000000000000000000000000000000000BA
S113430000000000000000000000000000000000A9
S11343100100000001000000000000000000000097
S11343200000000000000000000000000000000089
S11343300000000000000000000000000000000079
S11343400000000000000000000000000000000069
S11343500000000000000000000000000000000059
S11343600000000000000000010000000100000047
S11343700100000001000000000000000000000037
S11343800000000000000000000000000000000029
S11343900000000000000000000000000000000019
S11343A00000000000000000000000000000000009
S11343B000000000010000000100000000000000F7
S11343C000000000000000000100000001000000E7
S11343D000000000000000000000000000000000D9
S11343E000000000000000000000000000000000C9
S11343F000000000000000000000000000000000B9
S113440000000000000000000000000000000000A8
S11344100000000000000000000000000000000098
S11344200000000000000000000000000000000088
S11344300000000000000000000000000000000078
S11344400100000001000000000000000000000066
S11344500100000001000000000000000000000056
S11344600000000000000000010000000100000046
S11344700000000000000000000000000000000038
S11344800000000000000000000000000000000028
S11344900000000000000000000000000000000018
S11344A00000000000000000000000000100000007
S11344B001000000010000000100000001000000F4
S11344C000000000000000000000000000000000E8
S11344D000000000000000000000000000000000D8
S11344E000000000000000000000000000000000C8
S11344F000000000000000000000000000000000B8
S113450000000000000000000000000000000000A7
S11345100000000000000000000000000000000097
S11345200000000000000000000000000000000087
S11345300000000000000000000000000000000077
S11345400000000000000000000000000000000067
S11345500000000000000000000000000000000057
S11345600000000000000000010000000100000045
S11345700100000001000000010000000000000034
S11345800000000000000000000000000000000027
S11345900000000000000000000000000000000017
S11345A00000000000000000000000000000000007
S11345B001000000010000000000000000000000F5
S11345C000000000000000000100000001000000E5
S11345D000000000000000000000000000000000D7
S11345E000000000000000000000000000000000C7
S11345F000000000000000000000000000000000B7
S113460000000000000000000000000000000000A6
S11346100000000000000000000000000000000096
S11346200000000000000000000000000000000086
S11346300000000000000000000000000100000075
S11346400100000000000000000000000000000065
S11346500100000001000000000000000000000054
S11346600000000000000000000000000100000045
S11346700100000000000000000000000000000035
S11346800000000000000000000000000000000026
S11346900000000000000000000000000000000016
S11346A00000000000000000000000000100000005
S11346B001000000010000000100000001000000F2
S11346C000000000000000000000000000000000E6
S11346D000000000000000000000000000000000D6
S11346E000000000000000000000000000000000C6
S11346F000000000000000000000000000000000B6
S113470000000000000000000000000000000000A5
S11347100000000001000000010000000000000093
S11347200000000000000000000000000000000085
S11347300000000000000000000000000000000075
S11347400000000000000000000000000000000065
S11347500000000000000000000000000000000055
S11347600000000000000000010000000100000043
S11347700100000001000000010000000000000032
S11347800000000000000000000000000000000025
S11347900000000000000000000000000000000015
S11347A00000000000000000000000000100000004
S11347B001000000010000000000000000000000F3
S11347C000000000000000000100000001000000E3
S11347D000000000000000000000000000000000D5
S11347E000000000000000000000000000000000C5
S11347F000000000000000000000000000000000B5
S113480000000000000000000000000000000000A4
S11348100000000000000000000000000000000094
S11348200000000000000000000000000000000084
S11348300000000001000000010000000100000071
S11348400000000000000000000000000000000064
S11348500100000001000000000000000000000052
S11348600000000000000000000000000000000044
S11348700100000001000000000000000000000032
S11348800000000000000000000000000000000024
S11348900000000000000000000000000000000014
S11348A00000000000000000000000000100000003
S11348B001000000010000000100000001000000F0
S11348C001000000000000000000000000000000E3
S11348D000000000000000000000000000000000D4
S11348E000000000000000000000000000000000C4
S11348F000000000000000000000000000000000B4
S113490000000000000000000000000000000000A3
S11349100000000000000000010000000100000091
S11349200100000001000000010000000000000080
S11349300000000000000000000000000000000073
S11349400000000000000000000000000000000063
S11349500000000000000000000000000000000053
S11349600000000000000000010000000100000041
S1134970010000000100000001000000010000002F
S11349800000000000000000000000000000000023
S11349900000000000000000000000000000000013
S11349A00000000000000000000000000100000002
S11349B001000000010000000100000001000000EF
S11349C001000000010000000100000001000000DF
S11349D001000000010000000100000001000000CF
S11349E001000000010000000100000000000000C0
S11349F000000000000000000000000000000000B3
S1134A0000000000000000000000000000000000A2
S1134A100000000000000000000000000000000092
S1134A200000000000000000000000000000000082
S1134A30010000000100000001000000000000006F
S1134A400000000000000000000000000000000062
S1134A500100000001000000000000000000000050
S1134A600000000000000000000000000000000042
S1134A70010000000100000001000000000000002F
S1134A800000000000000000000000000000000022
S1134A900000000000000000000000000000000012
S1134AA00000000000000000000000000100000001
S1134AB001000000010000000100000001000000EE
S1134AC001000000010000000000000000000000E0
S1134AD000000000000000000000000000000000D2
S1134AE000000000000000000000000000000000C2
S1134AF000000000000000000000000000000000B2
S1134B0000000000000000000000000000000000A1
S1134B100000000000000000000000000100000090
S1134B20010000000100000001000000000000007E
S1134B300000000000000000000000000000000071
S1134B400000000000000000000000000000000061
S1134B500000000000000000000000000000000051
S1134B60000000000100000001000000010000003E
S1134B70010000000100000001000000010000002D
S1134B800000000000000000000000000000000021
S1134B900000000000000000000000000000000011
S1134BA00000000000000000000000000100000000
S1134BB001000000010000000100000000000000EE
S1134BC000000000000000000100000001000000DF
S1134BD000000000000000000000000000000000D1
S1134BE000000000000000000000000000000000C1
S1134BF000000000000000000000000000000000B1
S1134C0000000000000000000000000000000000A0
S1134C100000000000000000000000000000000090
S1134C200000000000000000000000000000000080
S1134C30010000000100000000000000000000006E
S1134C400000000000000000000000000000000060
S1134C50010000000100000000000000000000004E
S1134C600000000000000000000000000000000040
S1134C70000000000100000000000000000000002F
S1134C800000000000000000000000000000000020
S1134C900000000000000000000000000000000010
S1134CA000000000000000000000000001000000FF
S1134CB001000000010000000100000001000000EC
S1134CC001000000010000000100000000000000DD
S1134CD000000000000000000000000000000000D0
S1134CE000000000000000000000000000000000C0
S1134CF000000000000000000000000000000000B0
S1134D00000000000000000000000000000000009F
S1134D10000000000000000000000000000000008F
S1134D20000000000000000000000000000000007F
S1134D30000000000000000000000000000000006F
S1134D40000000000000000000000000000000005F
S1134D50000000000000000000000000000000004F
S1134D60000000000100000001000000010000003C
S1134D70010000000100000001000000010000002B
S1134D80000000000000000000000000000000001F
S1134D90000000000000000000000000000000000F
S1134DA000000000000000000000000000000000FF
S1134DB000000000000000000000000000000000EF
S1134DC000000000000000000100000001000000DD
S1134DD000000000000000000000000000000000CF
S1134DE000000000000000000000000000000000BF
S1134DF000000000000000000000000000000000AF
S1134E00000000000000000000000000000000009E
S1134E10000000000000000000000000000000008E
S1134E20000000000000000000000000000000007E
S1134E30000000000000000000000000000000006E
S1134E40000000000000000000000000000000005E
S1134E50010000000100000000000000000000004C
S1134E60000000000000000000000000000000003E
S1134E70000000000000000000000000000000002E
S1134E80000000000000000000000000000000001E
S1134E90000000000000000000000000000000000E
S1134EA000000000000000000000000001000000FD
S1134EB001000000010000000100000001000000EA
S1134EC001000000010000000100000001000000DA
S1134ED000000000000000000000000000000000CE
S1134EE000000000000000000000000000000000BE
S1134EF000000000000000000000000000000000AE
S1134F00000000000000000000000000000000009D
S1134F10000000000000000000000000000000008D
S1134F20000000000000000000000000000000007D
S1134F30000000000000000000000000000000006D
S1134F40000000000000000000000000000000005D
S1134F50000000000000000000000000010000004C
S1134F600100000001000000010000000100000039
S1134F700100000001000000010000000100000029
S1134F80000000000000000000000000000000001D
S1134F90000000000000000000000000000000000D
S1134FA000000000000000000000000000000000FD
S1134FB000000000000000000000000000000000ED
S1134FC000000000000000000100000001000000DB
S1134FD000000000000000000000000000000000CD
S1134FE000000000000000000000000000000000BD
S1134FF000000000000000000000000000000000AD
S1135000000000000000000000000000000000009C
S1135010000000000000000000000000000000008C
S1135020000000000000000000000000000000007C
S1135030000000000000000000000000000000006C
S1135040000000000000000000000000000000005C
S1135050010000000100000000000000000000004A
S1135060000000000000000000000000000000003C
S1135070000000000000000000000000000000002C
S1135080000000000000000000000000000000001C
S1135090000000000000000000000000000000000C
S11350A000000000000000000000000001000000FB
S11350B001000000010000000100000001000000E8
S11350C001000000010000000100000001000000D8
S11350D001000000000000000000000000000000CB
S11350E000000000000000000000000000000000BC
S11350F000000000000000000000000000000000AC
S1135100000000000000000000000000000000009B
S1135110000000000000000000000000000000008B
S1135120000000000000000000000000000000007B
S1135130000000000000000000000000000000006B
S1135140000000000000000000000000000000005B
S1135150000000000000000000000000010000004A
S11351600100000001000000010000000100000037
S11351700100000001000000010000000100000027
S1135180010000000000000000000000000000001A
S1135190000000000000000000000000000000000B
S11351A000000000000000000000000000000000FB
S11351B000000000000000000000000000000000EB
S11351C000000000000000000100000001000000D9
S11351D000000000000000000000000000000000CB
S11351E000000000000000000000000000000000BB
S11351F000000000000000000000000000000000AB
S1135200000000000000000000000000000000009A
S1135210000000000000000000000000000000008A
S1135220000000000000000000000000000000007A
S1135230000000000000000000000000000000006A
S1135240000000000000000000000000000000005A
S11352500100000001000000000000000000000048
S1135260000000000000000000000000000000003A
S1135270000000000000000000000000000000002A
S1135280000000000000000000000000000000001A
S1135290000000000000000000000000000000000A
S11352A000000000000000000000000001000000F9
S11352B001000000010000000100000001000000E6
S11352C001000000010000000100000001000000D6
S11352D001000000010000000000000000000000C8
S11352E000000000000000000000000000000000BA
S11352F000000000000000000000000000000000AA
S11353000000000000000000000000000000000099
S11353100000000000000000000000000000000089
S11353200000000000000000000000000000000079
S11353300000000000000000000000000000000069
S11353400000000000000000000000000000000059
S11353500000000001000000010000000100000046
S11353600100000001000000010000000100000035
S11353700100000001000000010000000100000025
S11353800100000000000000000000000000000018
S11353900000000000000000000000000000000009
S11353A001000000010000000100000001000000F5
S11353B001000000010000000100000001000000E5
S11353C001000000010000000100000001000000D5
S11353D001000000010000000100000001000000C5
S11353E001000000010000000100000001000000B5
S11353F001000000000000000000000000000000A8
S11354000000000000000000000000000000000098
S11354100000000000000000000000000000000088
S11354200000000000000000000000000000000078
S11354300000000000000000000000000000000068
S11354400000000000000000000000000000000058
S11354500100000001000000000000000000000046
S11354600000000000000000000000000000000038
S11354700000000000000000000000000000000028
S11354800000000000000000000000000000000018
S11354900000000000000000000000000000000008
S11354A000000000000000000000000001000000F7
S11354B001000000010000000100000001000000E4
S11354C001000000010000000100000001000000D4
S11354D001000000010000000100000001000000C4
S11354E000000000000000000000000000000000B8
S11354F000000000000000000000000000000000A8
S11355000000000000000000000000000000000097
S11355100000000000000000000000000000000087
S11355200000000000000000000000000000000077
S11355300000000000000000000000000000000067
S11355400000000000000000000000000100000056
S11355500100000001000000010000000100000043
S11355600100000001000000010000000100000033
S11355700100000001000000010000000100000023
S11355800100000000000000000000000000000016
S11355900000000000000000000000000000000007
S11355A000000000010000000100000001000000F4
S11355B001000000010000000100000001000000E3
S11355C001000000010000000100000001000000D3
S11355D001000000010000000100000001000000C3
S11355E001000000010000000100000001000000B3
S11355F001000000000000000000000000000000A6
S11356000000000000000000000000000000000096
S11356100000000000000000000000000000000086
S11356200000000000000000000000000000000076
S11356300000000000000000000000000000000066
S11356400000000000000000000000000000000056
S11356500100000001000000000000000000000044
S11356600000000000000000000000000000000036
S11356700000000000000000000000000000000026
S11356800000000000000000000000000000000016
S11356900000000000000000000000000000000006
S11356A000000000000000000000000001000000F5
S11356B001000000010000000100000001000000E2
S11356C001000000010000000100000001000000D2
S11356D001000000010000000100000001000000C2
S11356E001000000010000000000000000000000B4
S11356F000000000000000000000000000000000A6
S11357000000000000000000000000000000000095
S11357100000000000000000000000000000000085
S11357200000000000000000000000000000000075
S11357300000000000000000000000000000000065
S11357400100000001000000010000000100000051
S11357500100000001000000010000000100000041
S11357600100000001000000010000000100000031
S11357700100000001000000010000000100000021
S11357800100000000000000000000000000000014
S11357900000000000000000000000000000000005
S11357A000000000000000000000000000000000F5
S11357B000000000000000000000000000000000E5
S11357C000000000000000000100000001000000D3
S11357D000000000000000000000000000000000C5
S11357E000000000000000000000000000000000B5
S11357F000000000000000000000000000000000A5
S11358000000000000000000000000000000000094
S11358100000000000000000000000000000000084
S11358200000000000000000000000000000000074
S11358300000000000000000000000000000000064
S11358400000000000000000000000000000000054
S11358500100000001000000000000000000000042
S11358600000000000000000000000000000000034
S11358700000000000000000000000000000000024
S11358800000000000000000000000000000000014
S11358900000000000000000000000000000000004
S11358A000000000000000000000000001000000F3
S11358B001000000010000000100000001000000E0
S11358C001000000010000000100000001000000D0
S11358D001000000010000000100000001000000C0
S11358E001000000010000000100000001000000B0
S11358F001000000000000000000000000000000A3
S11359000000000000000000000000000000000093
S11359100000000000000000000000000000000083
S11359200000000000000000000000000000000073
S11359300000000001000000010000000100000060
S1135940010000000100000001000000010000004F
S1135950010000000100000001000000010000003F
S1135960010000000100000001000000010000002F
S1135970010000000100000001000000010000001F
S11359800100000000000000000000000000000012
S11359900000000000000000000000000000000003
S11359A000000000000000000000000000000000F3
S11359B000000000000000000000000000000000E3
S11359C000000000000000000100000001000000D1
S11359D000000000000000000000000000000000C3
S11359E000000000000000000000000000000000B3
S11359F000000000000000000000000000000000A3
S1135A000000000000000000000000000000000092
S1135A100000000000000000000000000000000082
S1135A200000000000000000000000000000000072
S1135A300000000000000000000000000000000062
S1135A400000000000000000000000000000000052
S1135A500000000000000000000000000000000042
S1135A600000000000000000000000000000000032
S1135A700000000000000000000000000000000022
S1135A800000000000000000000000000000000012
S1135A900000000000000000000000000000000002
S1135AA000000000000000000000000001000000F1
S1135AB001000000010000000100000001000000DE
S1135AC001000000010000000100000001000000CE
S1135AD001000000010000000100000001000000BE
S1135AE001000000010000000100000001000000AE
S1135AF0010000000100000001000000010000009E
S1135B00010000000100000001000000010000008D
S1135B10010000000100000001000000010000007D
S1135B20010000000100000001000000010000006D
S1135B30010000000100000001000000010000005D
S1135B40010000000100000001000000010000004D
S1135B50010000000100000001000000010000003D
S1135B60010000000100000001000000010000002D
S1135B70010000000100000001000000010000001D
S1135B800100000000000000000000000000000010
S1135B900000000000000000000000000000000001
S1135BA000000000000000000000000000000000F1
S1135BB000000000000000000000000000000000E1
S1135BC000000000000000000100000001000000CF
S1135BD000000000000000000000000000000000C1
S1135BE000000000000000000000000000000000B1
S1135BF000000000000000000000000000000000A1
S1135C000000000000000000000000000000000090
S1135C100000000000000000000000000000000080
S1135C200000000000000000000000000000000070
S1135C300000000000000000000000000000000060
S1135C400000000000000000000000000000000050
S1135C500000000000000000000000000000000040
S1135C600000000000000000000000000000000030
S1135C700000000000000000000000000000000020
S1135C800000000000000000000000000000000010
S1135C900000000000000000000000000000000000
S1135CA000000000000000000000000001000000EF
S1135CB001000000010000000100000001000000DC
S1135CC001000000010000000100000001000000CC
S1135CD001000000010000000100000001000000BC
S1135CE001000000010000000100000001000000AC
S1135CF0010000000100000001000000010000009C
S1135D00010000000100000001000000010000008B
S1135D10010000000100000001000000010000007B
S1135D20010000000100000001000000010000006B
S1135D30010000000100000001000000010000005B
S1135D40010000000100000001000000010000004B
S1135D50010000000100000001000000010000003B
S1135D60010000000100000001000000010000002B
S1135D70010000000100000001000000010000001B
S1135D80010000000000000000000000000000000E
S1135D9000000000000000000000000000000000FF
S1135DA000000000000000000000000000000000EF
S1135DB000000000000000000000000000000000DF
S1135DC000000000000000000100000001000000CD
S1135DD000000000000000000000000000000000BF
S1135DE000000000000000000000000000000000AF
S1135DF0000000000000000000000000000000009F
S1135E00000000000000000000000000000000008E
S1135E10000000000000000000000000000000007E
S1135E20000000000000000000000000000000006E
S1135E30000000000000000000000000000000005E
S1135E40000000000000000000000000000000004E
S1135E50000000000000000000000000000000003E
S1135E60000000000000000000000000000000002E
S1135E70000000000000000000000000000000001E
S1135E80000000000000000000000000000000000E
S1135E9000000000000000000000000000000000FE
S1135EA000000000000000000000000001000000ED
S1135EB001000000010000000100000001000000DA
S1135EC001000000010000000100000001000000CA
S1135ED001000000010000000100000001000000BA
S1135EE001000000010000000100000001000000AA
S113841010B4DFF8182C0C2303FB00F3D2581368B4
S1138420DFF8082C0C2404FB00F4224452681343A4
S1138430DFF8F82B0C2404FB00F41259136000221B
S1138440DFF8EC3B53F820301A60DFF8E42B52F8E5
S11384502020526D52F00402DFF8D43B53F8203050
S11384605A650022DFF8C83B53F820305A600022D6
S1138470DFF8BC3B53F82030DA64DFF8B42B52F851
S1138480202091605FF0FF31DFF8A42B52F8200028
S1138490C0F8981010BC704771B581B00E0015007B
S11384A001AC04224FF6FF71207810F00700FFF7AB
S11384B0AFFF05220021207810F0070000F056F9E4
S11384C0F6B2002E02D0012E29D051E0DFF8600B65
S11384D0217811F0070150F82100DFF8541B2278AD
S11384E012F0070251F82210D1F8801031F0200167
S11384F0C0F88010DFF8380B217811F0070150F82C
S11385002100DFF82C1B227812F0070251F8221008
S1138510D1F8801031F01001C0F8801028E0DFF8A5
S1138520100B217811F0070150F82100DFF8001B2F
S1138530227812F0070251F82210D1F8801051F07D
S11385402001C0F88010DFF8E80A217811F0070153
S113855050F82100DFF8D81A227812F0070251F8F7
S11385602210D1F8801051F01001C0F88010FFE7FC
S1138570EDB2002D02D0012D15D029E0DFF8B00AAC
S1138580217811F0070150F82100DFF8A41A2278AD
S113859012F0070251F82210D1F8801031F00801CE
S11385A0C0F8801014E0DFF8880A217811F0070180
S11385B050F82100DFF8781A227812F0070251F8F7
S11385C02210D1F8801051F00801C0F88010FFE7A4
S11385D0002527E02268920912F007022168490A5F
